:100000000C9462000C948A000C948A000C948A0070
:100010000C948A000C948A000C948A000C948A0038
:100020000C948A000C948A000C948A000C948A0028
:100030000C948A000C94F3030C948A000C948A00AC
:100040000C94A9030C948A000C948A000C948A00E6
:100050000C948A000C948A000C948A000C948A00F8
:100060000C948A000C948A000000000024002700F1
:100070002A0000000000250028002B0000000000DE
:1000800023002600290004040404040404040202DA
:100090000202020203030303030301020408102007
:1000A0004080010204081020010204081020000012
:1000B0000008000201000003040700000000000027
:1000C0000000D00511241FBECFEFD8E0DEBFCDBFAA
:1000D00013E0A0E0B1E0EAEEF1E102C005900D927C
:1000E000A634B107D9F723E0A6E4B3E001C01D921E
:1000F000A639B207E1F710E0C2E6D0E004C02197CC
:10010000FE010E941506C136D107C9F70E944304BB
:100110000C94F3080C940000AF92BF92CF92DF9240
:10012000EF92FF920F931F93CF93DF936C017B01AC
:100130008B01040F151FEB015E01AE18BF08C0173D
:10014000D10759F06991D601ED91FC910190F081B0
:10015000E02DC6010995892B79F7C501DF91CF9173
:100160001F910F91FF90EF90DF90CF90BF90AF90D5
:100170000895833081F028F4813099F08230A9F01D
:1001800008958730A9F08830C9F08430B1F48091A7
:1001900080008F7D03C0809180008F7780938000E6
:1001A000089584B58F7784BD089584B58F7DFBCF86
:1001B0008091B0008F778093B00008958091B00057
:1001C0008F7DF9CFCF93DF93282F30E0F901E255EF
:1001D000FF4F8491F901E656FF4FD491F901EA5798
:1001E000FF4FC491CC23A1F081110E94B900EC2FE4
:1001F000F0E0EE0FFF1FE458FF4FA591B491EC9192
:10020000ED2381E090E009F480E0DF91CF91089543
:1002100080E090E0FACF1F93CF93DF93282F30E058
:10022000F901E255FF4F8491F901E656FF4FD49151
:10023000F901EA57FF4FC491CC23A9F0162F811181
:100240000E94B900EC2FF0E0EE0FFF1FEE58FF4FB9
:10025000A591B4918FB7F894EC91111108C0D09585
:10026000DE23DC938FBFDF91CF911F910895DE2BAA
:10027000F8CFCF93DF9390E0FC01E656FF4F249137
:100280008A579F4FFC0184918823D1F090E0880F1A
:10029000991FFC01E859FF4FA591B491FC01EE585C
:1002A000FF4FC591D49161110EC09FB7F8948C9106
:1002B000E22FE0958E238C932881E223E8839FBF71
:1002C000DF91CF9108958FB7F894EC91E22BEC93E6
:1002D0008FBFF6CF3FB7F89480914B0390914C03BA
:1002E000A0914D03B0914E0326B5A89B05C02F3FAA
:1002F00019F00196A11DB11D3FBFBA2FA92F982F4C
:100300008827BC01CD01620F711D811D911D42E046
:10031000660F771F881F991F4A95D1F70895089592
:1003200090E080E0089588E00E94E200892BB9F017
:1003300089E00E94E200892BA9F08AE00E94E20095
:10034000892B99F08BE00E94E200892B89F08CE0E8
:100350000E94E200892B79F090E080E0089581E02E
:1003600090E0089582E090E0089583E090E00895A1
:1003700084E090E0089585E090E00895FC0101900C
:100380000020E9F73197AF01481B590BBC018EE7FC
:1003900093E00C948C00CF93DF93EC0160E08E81AE
:1003A0000E940B0161E08E810E940B0160E08E8152
:1003B0000E940B018BE891E00197F1F7DF91CF915B
:1003C0000895CF92DF92EF92FF920F931F93CF93F6
:1003D000DF936C017C0187E0E80EF11CD0E0C0E007
:1003E000062F10E0B8010C2E02C0759567950A948F
:1003F000E2F76170F70181917F010E940B01219664
:10040000C430D10579F7C601DF91CF911F910F91CB
:10041000FF90EF90DF90CF900C94CB01CF92DF92C2
:10042000EF92FF920F931F93CF93DF93EC01F62E81
:10043000642F8C810E940B018D818F3F19F060E049
:100440000E940B010F2D10E08F8584FF25C06E01E7
:1004500087E0C80ED11CF12CE12CB8010E2C02C093
:10046000759567950A94E2F76170F60181916F01C5
:100470000E940B01FFEFEF1AFF0A88E0E816F10473
:1004800061F7CE01DF91CF911F910F91FF90EF9017
:10049000DF90CF900C94CB01B80184E075956795FF
:1004A0008A95E1F7CE010E94E1016F2DCE01DF9127
:1004B000CF911F910F91FF90EF90DF90CF900C9410
:1004C000E10140E0682F8EE793E00C940E0281E09A
:1004D0000E9461028BE39FE10197F1F70895CF93AA
:1004E000DF93823029F490918D03986090938D036F
:1004F000809391031092920380E48093930380E1B0
:100500008093940380E58093950361E0809182035A
:100510000E943901809183038F3F19F061E00E94AE
:10052000390161E0809184030E943901CEE7D3E074
:100530009E012E57334080918D0384FD0BC084E0D3
:1005400090E021962817390744F461E08E810E94DB
:100550003901EECF88E090E0F4CF8BE39DE0019786
:10056000F1F760E0809182030E940B0160E08091CE
:1005700084030E940B01809183038F3F19F060E098
:100580000E940B0180918D0384FD34C063E08EE7EF
:1005900093E00E94E101CBE4D6E4CE010197F1F7AC
:1005A00063E08EE793E00E94E1012197F1F763E0B9
:1005B0008EE793E00E94E10183E592E00197F1F775
:1005C00062E08EE793E00E94E10180918D038062FA
:1005D0000E94610284E080938E038CE00E9461029D
:1005E0000E94670282E080938F0386E0DF91CF91C3
:1005F0000C94610280620E9461028BE496E4019790
:10060000F1F780918D0380620E94610283E592E0A0
:100610000197F1F780918D0380620E946102D5CF2E
:1006200090919103891710F08FEF890FE82FF0E078
:10063000E258FC4F848980680C94610240917C03ED
:1006400050917D03E0917803F0917903A0917403B8
:10065000B091750320917A0330917B0342175307C1
:1006600089F420917603309177032E173F0751F4D8
:1006700020917203309173032A173B0719F4662304
:1006800009F440C050937B0340937A03F0937703BF
:10069000E0937603B0937303A09372036CE36A9FB5
:1006A00090016B9F300D11242E0F3F1F820F931F5F
:1006B00097FF02C080569A4F5F934F936CE370E0B0
:1006C0000E94ED059F938F937F936F9386E193E054
:1006D0009F938F9382E593E09F938F930E941B06D5
:1006E00081E00E94100382E593E00E94BE018DB775
:1006F0009EB70A960FB6F8949EBF0FBE8DBF81E0DD
:1007000090E0089590E080E008950F931F93CF93B9
:10071000DF938C0160E0C8010E941E030E949301D8
:10072000EC01892BB9F30E9493018C179D0729F4E2
:1007300060E0C8010E941E03F6CFCE01DF91CF9189
:100740001F910F91089541E00E940E0281E090E018
:1007500008951F920F920FB60F9211242F933F937B
:100760008F939F93AF93BF938091470390914803DA
:10077000A0914903B0914A033091460323E0230F2F
:100780002D3758F50196A11DB11D20934603809386
:10079000470390934803A0934903B0934A03809181
:1007A0004B0390914C03A0914D03B0914E030196E1
:1007B000A11DB11D80934B0390934C03A0934D0357
:1007C000B0934E03BF91AF919F918F913F912F9125
:1007D0000F900FBE0F901F90189526E8230F0296DA
:1007E000A11DB11DD2CF1F920F920FB60F921124EF
:1007F0002F933F938F939F938FB7F89420914F033C
:100800003091500330938500209384008FBF8091F6
:100810007C0390917D0301968C3391056CF4909349
:100820007D0380937C039F918F913F912F910F9037
:100830000FBE0F901F90189510927D0310927C03AD
:10084000809178039091790301968C3391052CF473
:100850009093790380937803E6CF109279031092F6
:100860007803809174039091750301968831910506
:100870002CF49093750380937403D5CF1092750375
:1008800010927403D0CF789484B5826084BD84B50F
:10089000816084BD85B5826085BD85B5816085BD7B
:1008A00080916E00816080936E0010928100809133
:1008B00081008260809381008091810081608093BB
:1008C0008100809180008160809380008091B100E0
:1008D00084608093B1008091B00081608093B0000B
:1008E00080917A00846080937A0080917A0082609F
:1008F00080937A0080917A00816080937A00809161
:100900007A00806880937A001092C10060E088E0ED
:100910000E94390160E089E00E94390160E08AE0CC
:100920000E94390160E08BE00E94390160E08CE0B8
:100930000E94390110928100109280001092820072
:1009400084E0809351038CED9BE09093500380935F
:100950004F038FB7F89420914F0330915003309399
:100960008500209384008FBF16BA81E080936F00CA
:10097000809151038093810082E00E946F020E9467
:10098000670280E00E9410038EE293E00E94BE01A5
:1009900081E00E9410038CE393E00E94BE010E945C
:1009A0006A014B015C0150EDC52E57E0D52EE12CBC
:1009B000F12C0E946A01681979098A099B09683E2D
:1009C000734081059105A8F321E0C21AD108E1081E
:1009D000F10888EE880E83E0981EA11CB11CC1149A
:1009E000D104E104F10429F70E94670210927D030B
:1009F00010927C0310927903109278031092750381
:100A00001092740310927B0310927A031092770372
:100A1000109276038FEF9FEF90937303809372038E
:100A200010E000E094E1992E25E1C22ED12C3CE3A8
:100A3000E32EF12C48E1A42EB12C80E00E9410039B
:100A4000909EB001919E700D11246E587E4FFB0157
:100A500001900020E9F73197AF01461B570B8EE755
:100A600093E00E948C00F801EE0FFF1FE85BFE4F41
:100A7000C081D18161E0CE010E941E03CE010E949F
:100A800085038430910561F08530910561F003970D
:100A9000A1F6C8010197B6010E94ED058C01CDCFEA
:100AA000C8010196F8CF0130110539F6D0E0C0E059
:100AB00080E00E9410039C9EC0019D9E900D112419
:100AC000845F9E4F0E94BE0190E080E00E948503FB
:100AD0008330910509F459C0ACF481309105D1F00F
:100AE000029731F7C130D10509F443C0C230D105B6
:100AF00009F445C02097E1F6809174039091750345
:100B0000019715C08430910509F444C0059709F494
:100B100094CFCECFC130D10591F0C230D105E1F0F4
:100B200080917403909175030196209709F6B501A1
:100B30000E94ED059093750380937403B9CF809163
:100B40007803909179030196B7010E94ED05909387
:100B5000790380937803ACCF80917C0390917D03DF
:100B60000196B7010E94ED0590937D0380937C036D
:100B70009FCF80917803909179030197E5CF809181
:100B80007C0390917D030197ECCF209709F490CFDF
:100B900021978ECFC230D1050CF08ACF219688CF15
:100BA000EEE7F3E01382128284E091E09183808388
:100BB00081E08483158282E0868384E0878385E0F8
:100BC000808786E0818787E0828713861486158672
:100BD0001686178681E00C946F0297FB072E16F499
:100BE000009407D077FD09D00E94010607FC05D0CC
:100BF0003EF4909581959F4F0895709561957F4F34
:100C00000895AA1BBB1B51E107C0AA1FBB1FA61753
:100C1000B70710F0A61BB70B881F991F5A95A9F7A5
:100C200080959095BC01CD010895EE0FFF1F0590B2
:100C3000F491E02D0994AEE0B0E0E1E2F6E00C942E
:100C4000CA080D891E8986E08C831A8309838FEF79
:100C50009FE79E838D83AE01475E5F4F6F89788DDE
:100C6000CE0101960E943E062F813885020F131F88
:100C7000F80110822E96E4E00C94E608ABE0B0E0B8
:100C8000E4E4F6E00C94BC087C013B018A01FC0121
:100C900017821682838181FFC8C1CE0101965C0153
:100CA000F7019381F30193FD859193FF81913F01BA
:100CB000882309F453C1853239F493FD859193FF5C
:100CC00081913F01853229F4B70190E00E942E08FE
:100CD000E7CF912C212C312CFFE1F31538F08B322A
:100CE00011F190F4803209F1833229F137FC3CC0D4
:100CF00020ED280F2A3050F536FE20C08AE0989E5D
:100D0000200D1124922E06C08D3291F0803371F7A0
:100D1000689430F8F30193FD859193FF81913F0131
:100D20008111DACF21C0689431F8689432F8F2CF9B
:100D3000689433F8EFCF689434F8ECCFEAE02E9E55
:100D4000200D1124222E689435F8E4CF8E3229F438
:100D500036FC04C1689436F8DDCF8C3619F46894FB
:100D600037F8D8CF8836B1F2982F9F7D95549330BD
:100D7000E0F08336A1F18337C1F1833509F063C018
:100D80002801F2E04F0E511CF801C080D180692D7E
:100D900070E036FC02C06FEF7FEFC6010E941808BA
:100DA0004C01689437F882010AC00C5F1F4FFFE3C3
:100DB000F98388248394912C6501E89437F833FEF5
:100DC0002DC0522C8114910471F5552009F468CF7F
:100DD000B70180E290E00E942E085A94F6CFF80105
:100DE000808189830E5F1F4FE4CF2801F2E04F0E10
:100DF000511CF801C080D180692D70E036FC02C022
:100E00006FEF7FEFC6010E9423084C018201D5CF0E
:100E1000B70180E290E00E942E082A942814190459
:100E200009F0B0F7CECFF60137FC859137FE8191FE
:100E30006F01B70190E00E942E0851105A94F1E022
:100E40008F1A9108BFCF843619F0893609F077C020
:100E5000F80137FE6BC060817181828193810C5FE4
:100E60001F4FF32DFF763F2E97FF09C09095809579
:100E7000709561957F4F8F4F9F4F689437F82AE0A8
:100E800030E0A5010E945E08C82ECA188C2C432CA5
:100E900036FE0CC0E89440F8C91440F434FE05C096
:100EA00032FC03C0F32DFE7E4F2E892C44FE95C0EC
:100EB000FE01EC0DF11D8081803309F087C0242DE7
:100EC000297E422E842D8870582E43FC95C040FE0A
:100ED0008FC09C2C821418F42C0C922C981844FE71
:100EE00091C0B70180E390E00E942E0842FE09C045
:100EF00088E790E041FE02C088E590E0B7010E94DB
:100F00002E08C91408F48AC0CA94D12C9FEFC91ABC
:100F1000D90ACA0CDB1CF60182916F01B70190E07F
:100F20000E942E08AC14BD04B1F74FCF60817181CF
:100F3000072E000C880B990B0E5F1F4F92CFD32CFE
:100F4000E894D4F82AE030E0853739F1232D297F61
:100F5000D22E8F3601F148F48835A9F0F701868149
:100F600097812B96E2E10C94D808803749F08837B6
:100F7000A9F7D4FE02C06894D2F820E130E00DC099
:100F80006894D4F8F6CF34FE03C0822F8660D82E42
:100F900020E132E002C028E030E0F801D7FE0FC0C7
:100FA00060817181828193810C5F1F4FA5010E9436
:100FB0005E08C82ECA183D2CE89437F867CF6081C8
:100FC000718190E080E00E5F1F4FF0CF42FC02C0C5
:100FD000839478CF8394839475CF842D867809F495
:100FE00071CFF6CFB70180E290E00E942E08839483
:100FF0008214C0F3512C73CF522C5818821408F469
:101000006ECFF8CF842D867809F47BCF8BE241FE3A
:1010100080E247FC8DE2B70190E071CFB70180E339
:1010200090E00E942E089A946CCF8FEF9FEF99CF9B
:10103000FC010590615070400110D8F780959095A3
:101040008E0F9F1F0895FC016150704001900110A8
:10105000D8F7809590958E0F9F1F08950F931F933B
:10106000CF93DF93182F092FEB018B8181FD09C0EE
:101070001FEF0FEF812F902FDF91CF911F910F91D5
:10108000089582FF14C02E813F818C819D81281795
:1010900039073CF4E881F981CF010196998388836F
:1010A00010838E819F8101969F838E83E3CFE88595
:1010B000F985812F0995892BA1F3DACFFA01AA27A7
:1010C000283051F1203181F1E8946F936E7F6E5F8B
:1010D0007F4F8F4F9F4FAF4FB1E03ED0B4E03CD039
:1010E000670F781F891F9A1FA11D680F791F8A1F1C
:1010F000911DA11D6A0F711D811D911DA11D20D083
:1011000009F468943F912AE0269F11243019305D3C
:101110003193DEF6CF010895462F4770405D41932D
:10112000B3E00FD0C9F7F6CF462F4F70405D4A337A
:1011300018F0495D31FD4052419302D0A9F7EACF42
:10114000B4E0A6959795879577956795BA95C9F771
:1011500000976105710508959B01AC010A2E069464
:101160005795479537952795BA95C9F7620F731F1D
:10117000841F951FA01D08952F923F924F925F925A
:101180006F927F928F929F92AF92BF92CF92DF9297
:10119000EF92FF920F931F93CF93DF93CDB7DEB7FC
:1011A000CA1BDB0B0FB6F894DEBF0FBECDBF099490
:1011B0002A88398848885F846E847D848C849B84E7
:1011C000AA84B984C884DF80EE80FD800C811B81F5
:1011D000AA81B981CE0FD11D0FB6F894DEBF0FBE24
:0A11E000CDBFED010895F894FFCF94
:1011EA0000000000A3038C0090018F012020202022
:1011FA007365743A686F75722020203E0000000003
:10120A003C2020207365743A6D696E202020203EB0
:10121A00000000003C2020207365743A7365632047
:10122A002020202000000000000000001E006AFFAD
:10123A001E006AFF6AFF5A00E2FF0E01E2FF4A013E
:10124A00A6FF00006AFFE2FF7800A6FF8601E2FF20
:10125A002EFF3C6520206972616E2020202020200C
:10126A00203E000000003C2020202A736574746927
:10127A006E672A20203E000000003C2020206F6D6F
:10128A00616E202020202020203E000000003C200B
:10129A0020206765726D616E79202020203E000053
:1012AA0000003C202020756165202020202020207D
:1012BA00203E000000003C2020206974616C7920E7
:1012CA0020202020203E000000003C202020656EC7
:1012DA00676C616E64202020203E000000003C20E4
:1012EA00202070616B697374616E2020203E0000BB
:1012FA0000003C2020207475726B65792020202024
:10130A00203E000000003C2020206368696E6120B6
:10131A0020202020203E000000003C202020727562
:10132A007373696120202020203E000000003C20C9
:10133A0020206A6170616E2020202020203E00005B
:10134A0000003C202020737972696120202020202F
:10135A00203E000000003C2020206972617120209C
:10136A0020202020203E000000003C202020667221
:10137A00616E636520202020203E000000003C2092
:10138A00202071617461722020202020203E0000FC
:10139A0000003C202020696E646961202020202002
:1013AA00203E000000003C202020677265656365CE
:1013BA0020202020203E000000003C2020206175D3
:1013CA00737472616C696120203E000000003C2049
:1013DA00202070726F7465626C612020203E0000CC
:1013EA0000003C2020206972656C616E6420202018
:1013FA00733E0000000074696D653A20253032643E
:10140A003A253032643A253032642020200064695B
:10141A00676974616C20636C6F636B0039353131B5
:06142A00333130313000C7
:107E0000112484B714BE81FFF0D085E080938100F7
:107E100082E08093C00088E18093C10086E0809377
:107E2000C20080E18093C4008EE0C9D0259A86E02C
:107E300020E33CEF91E0309385002093840096BBD3
:107E4000B09BFECF1D9AA8958150A9F7CC24DD24C4
:107E500088248394B5E0AB2EA1E19A2EF3E0BF2EE7
:107E6000A2D0813461F49FD0082FAFD0023811F036
:107E7000013811F484E001C083E08DD089C08234E0
:107E800011F484E103C0853419F485E0A6D080C0E4
:107E9000853579F488D0E82EFF2485D0082F10E0AE
:107EA000102F00270E291F29000F111F8ED06801E7
:107EB0006FC0863521F484E090D080E0DECF843638
:107EC00009F040C070D06FD0082F6DD080E0C81688
:107ED00080E7D80618F4F601B7BEE895C0E0D1E017
:107EE00062D089930C17E1F7F0E0CF16F0E7DF06D8
:107EF00018F0F601B7BEE89568D007B600FCFDCFD4
:107F0000A601A0E0B1E02C9130E011968C91119780
:107F100090E0982F8827822B932B1296FA010C0160
:107F200087BEE89511244E5F5F4FF1E0A038BF0790
:107F300051F7F601A7BEE89507B600FCFDCF97BE46
:107F4000E89526C08437B1F42ED02DD0F82E2BD052
:107F50003CD0F601EF2C8F010F5F1F4F84911BD097
:107F6000EA94F801C1F70894C11CD11CFA94CF0C13
:107F7000D11C0EC0853739F428D08EE10CD085E9AC
:107F80000AD08FE07ACF813511F488E018D01DD067
:107F900080E101D065CF982F8091C00085FFFCCF94
:107FA0009093C60008958091C00087FFFCCF809118
:107FB000C00084FD01C0A8958091C6000895E0E648
:107FC000F0E098E1908380830895EDDF803219F02E
:107FD00088E0F5DFFFCF84E1DECF1F93182FE3DFCA
:107FE0001150E9F7F2DF1F91089580E0E8DFEE27F6
:047FF000FF270994CA
:027FFE00040479
:0400000300007E007B
:00000001FF
